:020000040800F2
:10000000F0040020AD0100089F1A00081F17000827
:100010009D1A0008290600089D1E00080000000027
:10002000000000000000000000000000C31A0008EB
:100030007906000800000000C11A0008C51A00086F
:10004000C7010008C7010008C7010008C701000870
:10005000C7010008C7010008C7010008C701000860
:10006000C7010008C7010008C7010008C701000850
:10007000C7010008C7010008C7010008C701000840
:10008000C7010008C7010008C70100080000000000
:10009000000000000000000000000000C701000890
:1000A000C7010008C7010008C7010008C701000810
:1000B000A11B0008C7010008C7010008C70100080C
:1000C000C7010008C7010008C7010008C7010008F0
:1000D000C7010008C7010008C701000800000000B0
:1000E000C7010008C7010008C701000800000000A0
:1000F000000000000000000000000000C701000830
:1001000000000000C7010008C7010008C70100087F
:1001100000000000000000000000000000000000DF
:10012000C7010008C7010008C7010008C70100088F
:10013000C7010008000000000000000000000000EF
:10014000000000000000000000000000C7010008DF
:10015000C7010008C7010008C7010008C70100085F
:10016000C7010008C70100080000000000000000EF
:10017000000000000000000000000000000000007F
:1001800000000000C701000800000000000000009F
:10019000C7010008C7010008DFF80CD000F086F99D
:1001A00000480047BD1E0008F004002006488047B4
:1001B00006480047FEE7FEE7FEE7FEE7FEE7FEE74C
:1001C000FEE7FEE7FEE7FEE74D1B00089901000889
:1001D0002DE9F05F0546002092469B46884606467C
:1001E000814640241BE0284641464746224600F00F
:1001F000F0F853465A46C01A914110D3114618469A
:10020000224600F0D7F82D1A67EB01084F46224628
:100210000120002100F0CEF817EB00094E41201E0E
:10022000A4F10104DFDC484631462A464346BDE8D6
:10023000F09FD2B201E000F8012B491EFBD27047BB
:100240000022F6E710B513460A4604461946FFF7A2
:10025000F0FF204610BD2DE9FE4F81EA030404F0B3
:10026000004421F0004100944FF0000B23F00043C4
:1002700050EA01045ED052EA03045BD0C3F30A548F
:10028000C1F30A552C44A4F2F3340194A0FB0254A8
:10029000C1F3130141F48011C3F3130343F480133A
:1002A00001FB024400FB034E840A970A44EA81548E
:1002B00047EA8357A4FB076802958D0A05FB07856B
:1002C0004FEA932C04FB0C542705029D4FEA065875
:1002D00047EA1637B5EB08056EEB070C870E920E52
:1002E00047EA811742EA8312A7FB0201B6EB0B0132
:1002F00064EB00042B0D43EA0C335E1844EB1C50F6
:10030000DA465146E7FB0201C5F313044FEA0B330B
:1003100043EA14534FEA0432019C43EA0603A4F172
:100320000C040294009CCDE900B400F071F803B015
:10033000BDE8F08F00200146F9E70EB540F23341E9
:1003400002910021CDE900110A460B4600F060F849
:1003500003B000BD30B5041E71F1000404DB4FF0A2
:100360000044404264EB0101141E73F1000405DBFC
:100370001C464FF00043524263EB04038B4208BF1C
:10038000824230BD30B5041E71F1000404DB4FF031
:100390000044404264EB0101141E73F1000405DBCC
:1003A0001C464FF00043524263EB0403994208BFDE
:1003B000904230BD202A04DB203A00FA02F10020EE
:1003C00070479140C2F1200320FA03F31943904093
:1003D0007047202A04DB203A21FA02F000217047FE
:1003E00021FA02F3D040C2F120029140084319469D
:1003F000704710B5141E73F1000408DA401C41F177
:10040000000192185B411A4301D120F0010010BD98
:100410002DE9F04D92469B4611B1B1FA81F202E00E
:10042000B0FA80F220329046FFF7C4FF04460F4630
:1004300040EA0A0041EA0B0153465A46084313D0EA
:10044000114653EA010019D0C8F140025046FFF7A7
:10045000C0FF05460E46504659464246FFF7AAFFE2
:10046000084305D0012004E020463946BDE8F08D60
:100470000020054346EAE0762C4337430A9863059B
:10048000E40AA0EB08000022FD0A44EA47540A30BF
:1004900002D500200146E9E7010510196941DDE9AF
:1004A000084500196941BDE8F04DA2E7064C074D2B
:1004B00006E0E06840F0010394E807009847103434
:1004C000AC42F6D3FFF76CFE341F0008541F00083F
:1004D000454910B54A6822F440324A604A68436888
:1004E0001A434A6001684A6822F480724A600168CF
:1004F0004A68036942EA03224A6001684A6822F0B6
:1005000040724A6001684A6883681A434A60016819
:100510008A6822F400628A6001688A68C3681A43A4
:100520008A60816A6FF07062D14201688A6822F045
:1005300070628A6001688A680CD0836A1A438A6094
:1005400001688A6822F040528A6001688A68C36A3A
:100550001A4301E022F040528A6001688A6822F062
:1005600002028A6001688A68836942EA43028A60FB
:10057000016A002901684A680FD042F400624A60AB
:1005800001684A6822F460424A6001684A68174C70
:10059000436A04EB43331A4301E022F400624A60E9
:1005A0000168CA6A22F47002CA620168CA6A838B4F
:1005B0000F4C04EB03531A43CA6201688A6822F4A1
:1005C00000728A6001688A68036B42EA43228A608B
:1005D00001688A6822F480628A6001688A684069DA
:1005E00042EA8020886010BD0023014000E0FFFF48
:1005F0000000F0FF10B5FFF7A0FE9FED071B53ECC6
:10060000112BFFF728FE9FED061B53EC112BFFF774
:1006100022FE41EC100B10BD48E17A14AE470740B2
:10062000000000000000303FFEE7000010B5104C55
:100630004021204600F0B0FA002818D00D49886803
:1006400001280ED00120886001F06AF801222021E3
:10065000204600F0A6FABDE810404FF47A7000F092
:10066000C5B90220886001F05BF80022EFE710BDF9
:1006700000000240000000207047000078B5002410
:10068000009490F83C20012A19D0012280F83C20E7
:100690000A6807230568092A13D9EE680A3A02EBAB
:1006A000420293409E43EE600A788B680A3A02EB5E
:1006B000420293400268D5682B43D36010E00220C9
:1006C00078BD2E6902EB420293409E432E610A7868
:1006D0008B6802EB42029340026815692B43136159
:1006E0004A681F23072A13D205686E6B521E02EB5D
:1006F000820293409E436E630B790A885B1E92B21E
:1007000003EB83039A4003685D6B2A435A6327E037
:1007100005680D2A12D22E6BD21F02EB8202934083
:100720009E432E630B790A88DB1F92B203EB83038F
:100730009A4003681D6B2A431A6311E0EE6A0D3A72
:1007400002EB820293409E43EE620B790A880D3BD6
:1007500092B203EB83039A400368DD6A2A43DA62AC
:10076000174B0568154A9D4206D10D68122D03D11D
:10077000556845F48005556005689D4219D1114DB5
:100780000B68AB4201D0112B13D1536843F4000323
:1007900053600968A9420CD10B490C4A0968B1FBA6
:1007A000F2F101EB8101490000E0491E00910029AE
:1007B000FBD180F83C40002078BD000000230140C0
:1007C00000200140120000102C00002040420F00C9
:1007D0000068C06C704770B504004FF0000503D08E
:1007E000206C002610B107E0012070BD666484F81B
:1007F0003C60204600F01AF8206CC00610D4206C33
:1008000020F4885040F0020020642046FFF760FE8C
:100810006664206C20F0020040F00100206400E0DB
:10082000012584F83C60284670BD000010B586B0F4
:10083000044614216846FFF703FD114920688842E9
:100840001CD110480021026842F4807202600068E6
:1008500000F4807005900B481438026842F00402DE
:100860000260006800F00400059001200090032061
:10087000CDE901016946044800F0CAF806B010BD90
:100880000020014044380240000802402DE9F041B8
:10089000044600680D4681684FF0000749050BD5F6
:1008A0008068C00508D5206C40F02000206484F8E2
:1008B0003C700120BDE8F08100F078F906460FE0B9
:1008C000681C0DD025B100F071F9801BA84207D932
:1008D000206C40F00400206484F83C700320E9E7B9
:1008E000206800688007EBD521686FF0120008606F
:1008F000206C40F4007020642068816811F0405F33
:1009000013D1A16989B9C16A11F4700F02D080684E
:1009100040050AD4206C20F480702064206CC00450
:1009200003D4206C40F0010020640020C2E70000E6
:1009300018B50021009190F83C20012A07D001222F
:1009400080F83C2002689368DB0702D011E00220A7
:1009500018BD936843F001039360204A204B12684E
:10096000B2FBF3F202EB420200E0521E0092002AB8
:10097000FBD102689368DB072DD0036C40F2016461
:10098000A34343F48073036453685B0505D5036C8C
:1009900023F4005343F480530364036CDB0404D555
:1009A000436C23F00603436400E0416480F83C108C
:1009B0000C496FF02203136049680068C90602D031
:1009C0000949884207D1816811F0405F03D18168ED
:1009D00041F080418160002018BD00002C00002003
:1009E00040420F00002301400020014070B5044642
:1009F00000F0DCF80546601C02D00448007804448E
:100A000000F0D4F8401BA042FAD370BD20000020B3
:100A10002DE9F84FDFF860B100224FF001084FF0E8
:100A2000030A4FF00F090BF1040E00BF0B6808FA20
:100A300002F42340A3426ED14D68022D01D0122D45
:100A40000ED1D50800EB850CDCF820505607F70EC8
:100A500009FA07F6B5430E69BE402E43CCF8206074
:100A6000066855000F790AFA05FC07F0030726EA25
:100A70000C06AF40374307604E68012E05D0022EAA
:100A800003D0112E01D0122E0ED18668CF6826EA2F
:100A90000C06AF40374387604668A6430C79C4F321
:100AA0000014944034434460C6688C6826EA0C06FF
:100AB000AC403443C4604C68E40056D52F4C2568E4
:100AC00045F480452560246822F0030504F4804441
:100AD00000942B4C2E19D6F8084895072F0F09FAC9
:100AE00007F5AC43274DA84201D1002515E0264D5E
:100AF000A84201D1012510E0244DA84201D10225D0
:100B00000BE0234DA84201D1032506E0214DA84268
:100B100002D1042501E028E00725BD402543C6F8A1
:100B20000858DBF800405D464E689C43F60300D54C
:100B30001C432C60DEF8004075464E689C43B603AB
:100B400000D51C432C600C4D08352C684E689C4326
:100B5000F60200D51C432C60074D0C352C684E68FE
:100B60009C43B60200D51C432C60521C102AFFF493
:100B70005DAFBDE8F88F0000003C01404438024002
:100B80000030014000000240000402400008024022
:100B9000000C0240001002400069084000D0012013
:100BA00070470AB1816170470904FBE7014880681A
:100BB000704700002000002002488168027811443C
:100BC00081607047200000200B4810B5016841F497
:100BD00000710160016841F480610160016841F4C5
:100BE00080710160032000F06FF8002000F006F82B
:100BF00000F024F8002010BD003C024070B50D4DFF
:100C000004464FF47A712878B1FBF0F00A4909687C
:100C1000B1FBF0F000F0C0FA48B9102C07D2002266
:100C20002146501E00F030F800206C6070BD01209D
:100C300070BD0000200000202C0000200B4882B076
:100C4000016841F480410160006800F48040009038
:100C50000648001F016841F080510160006800F003
:100C600080500090072002B000F02EB844380240B7
:100C700000F01F02012191404009800000F1E020B6
:100C8000C0F8001170470000F0B40E4B1B680C4612
:100C9000C3F30223C3F10705042D00D90425191D50
:100CA000072901D2002300E0DB1E012606FA05F128
:100CB000491E214099409E40761E16403143F0BCAB
:100CC00000F0EEBE0CED00E0064900F007020868F7
:100CD0004FF6FF03184040EA0220034A1043086021
:100CE000704700000CED00E00000FA052DE9F04728
:100CF0000E46050065D0DFF81481D8F80000F7B281
:100D000000F00F00B04207D288F80070D8F8000059
:100D100000F00F00B04254D128683D4C810712D535
:100D2000400703D5206840F4E05020602878000791
:100D300003D5206840F4604020602068A96820F056
:100D4000F000084320602878C0072DD0304968683B
:100D50000839012812D0022813D0032811D00968BD
:100D6000890700292DDA216821F003010143216060
:100D7000FFF71CFF814641F2883A0EE009688903BB
:100D8000EFE709688901ECE7FFF710FFA0EB090125
:100D9000514502D90320BDE8F0872068696800F05A
:100DA0000C00B0EB810FEFD1D8F80010404601F0F5
:100DB0000F01B14207D90770006800F00F00B04280
:100DC00001D00120E7E72878400705D52068E968C9
:100DD00020F4E050084320602878000706D52068FA
:100DE000296920F4604040EAC100206000F016F854
:100DF0002168084AC1F30311515CC84006490860E4
:100E00000020FFF7FBFE0020C5E70000003C024089
:100E100008380240241F00082C000020154810B597
:100E2000006810F00C02144813D04110042A0FD0AF
:100E3000082A0ED10F4C241F2268236802F03F02BB
:100E40005B0207D52068C0F38810A0FB010106E013
:100E5000084610BD2168C1F38811A1FB00010023E1
:100E6000FFF7B6F92168C1F30141491C4900B0FB05
:100E7000F1F010BD083802400024F4002DE9F84FCD
:100E8000050076D02878DFF8F8B2BE4CC00749D00C
:100E9000DBF800105846C1F38101012908D0006831
:100EA000C0F3810002280AD1201D0068400206D547
:100EB0002068800336D568680028E2D032E0686890
:100EC000B0F5803F10D0B0F5A02F206810D020F4EE
:100ED00080302060206820F4802020606868A0B105
:100EE000FFF764FE06460CE0206840F48030F4E72B
:100EF00040F480202060F7E7FFF758FE801B64284D
:100F000073D820688003F7D50CE0FFF74FFE064644
:100F100005E000BFFFF74AFE801B6428F0D8206878
:100F20008003F7D42878DFF8608280074FF000094B
:100F30003ED5DBF80010584611F00C0F09D00068C0
:100F4000C0F3810002280BD18D48001F00684002C9
:100F500006D42068800715D5E868012809D111E07A
:100F6000E868B8B10120C8F80000FFF71FFE064688
:100F700005E002E1FFF71AFE801B0228C0D82068B6
:100F80008007F7D52068296920F0F80040EAC10001
:100F900020600DE0C8F80090FFF708FE064604E068
:100FA000FFF704FE801B02281FD820688007F7D4B3
:100FB0002878000722D5724E744869696C3671B181
:100FC00001210160FFF7F2FD074604E0FFF7EEFDA7
:100FD000C01B022809D830688007F7D50EE0C0F89A
:100FE0000090FFF7E3FD074605E083E0FFF7DEFD35
:100FF000C01B02287ED830688007F7D428784007C5
:1010000068D5DFF87CA100270AF1380ADAF8000079
:10101000C0000BD4DAF8001041F08051CAF800107B
:10102000DAF80000012700F080500090584E306838
:10103000C00510D4306840F480703060FFF7B6FD12
:10104000009005E0FFF7B2FD0099401A022851D840
:101050003068C005F6D54A4EA868683601280FD01A
:101060000528306810D020F001003060306820F092
:1010700004003060A868B8B1FFF798FD00900FE059
:10108000306840F00100F4E740F004003060F7E71A
:10109000FFF78CFD0099411A41F28830814264D8F3
:1010A00030688007F4D50EE0FFF780FD009007E080
:1010B000FFF77CFD0099411A41F28830814254D8F3
:1010C00030688007F4D42FB1DAF8001021F0805195
:1010D000CAF80010A869C0B3DBF80010C1F38101A1
:1010E00002294AD00228484607D0C8F86000FFF716
:1010F0005DFD00E039E005463AE04746C8F860008B
:10110000FFF754FD064604E0FFF750FD801B022860
:101110002BD820688001F7D4D5E907010843A96AD4
:101120001C4A490802EB01416A6A41EA82110843FC
:1011300095F82C1040EA01611148001F0160012060
:101140003866FFF733FD054605E014E0FFF72EFD96
:10115000401B022809D820688001F7D50BE000BFAA
:10116000FFF724FD401B022802D90320BDE8F88FB9
:1011700020688001F4D40020F8E70120F6E70000A1
:10118000083802400038024000004742800E4742C3
:10119000007000400000FFFF10B5401EB0F1807FDE
:1011A00001D3012010BD4FF0E02460610F216017D2
:1011B00000F076FC0020A06107202061002010BD17
:1011C0007047704710B590F83820012A25D00122C9
:1011D00080F83820CA688C6822F4407222434C6838
:1011E00022F4806222430C6822F4006222430C69DC
:1011F00022F4805222434C6922F4005222438C692B
:1012000022F48042224322F4004102680023214359
:10121000516480F83830002010BD022010BD30B578
:1012200090F83820012A20D0012280F838200223AB
:1012300080F8393003685C6824F070045C600368EF
:101240005C680D682C435C6003689C6824F0800433
:101250009C6003689C6849680C439C6080F8392056
:10126000002180F83810084630BD022030BD10B58E
:10127000040003D094F8390010B107E0012010BD3C
:10128000002084F83800204600F00CF8022084F892
:101290003900211D206800F089FC012084F8390004
:1012A000002010BD08B500681149884209D11148D5
:1012B000016841F001010160006800F00100009048
:1012C00008BDB0F1804FFBD10A48001F016841F012
:1012D000010101600068002200F001000090114649
:1012E0001C20FFF7D1FCBDE808401C20FFF7C0BC64
:1012F00000000140443802400168CA6842F001021F
:10130000CA600068016841F0010101600020704777
:1013100070B5044690F83800012817D0012584F8EC
:101320003850022084F839002068826822F0770261
:1013300022F47F4282600868502837D00DDC2028D4
:1013400059D005DC88B3102841D151E0022070BD8E
:10135000302853D040283AD13FE060282ED0702862
:101360000BD0B0F5805F03D0B0F5005F2FD110E057
:101370002068816821F0070115E0CB68D1E90121DF
:10138000206800F066FC2168886840F0770088607B
:101390001DE0CB68D1E90121206800F05AFC2068EB
:1013A000816841F48041816011E01EE0CA684968AB
:1013B000206800F003FD5021206806E0CA684968F3
:1013C000206800F00CFD6021206800F04CFC84F8DF
:1013D0003950002084F8380070BDCA684968206818
:1013E00000F0ECFC40212068EFE700212068ECE7EA
:1013F00010212068E9E720212068E6E730212068F5
:10140000E3E7704770B50446006801694FF00005D6
:10141000C943890715D4C168C943890711D4E91E96
:10142000016101202076206880698007204602D073
:10143000FFF7E7FF04E000F0C3F8204600F045F9AD
:10144000257620680169C943490717D4C168C94393
:10145000490713D46FF0040101610220207620684F
:10146000806910F4407F204602D0FFF7CAFF04E0F5
:1014700000F0A6F8204600F028F9257620680169DA
:10148000C943090716D4C168C943090712D46FF0CC
:1014900008010161042020762068C0698007204689
:1014A00002D0FFF7AEFF04E000F08AF8204600F01B
:1014B0000CF9257620680169C943C90617D4C168AB
:1014C000C943C90613D46FF01001016108202076CA
:1014D0002068C06910F4407F204602D0FFF791FFDA
:1014E00004E000F06DF8204600F0EFF82576206863
:1014F0000169C943C90708D1C168C943C90704D1F3
:10150000891E0161204600F0F9F820680169C9438D
:10151000090609D4C168C943090605D46FF08001E2
:1015200001612046FFF74CFE20680169C943490666
:1015300009D4C168C943490605D46FF0400101616F
:10154000204600F0EBF820680169C94389060BD4F6
:10155000C168C943890607D46FF0200101612046A4
:10156000BDE87040FFF72DBE70BD000010B586B01D
:10157000044614216846FEF763FE0E49206888423F
:1015800016D10D480021026842F010020260006886
:1015900000F0100005904FF4007000900220CDE99B
:1015A00001010120CDE9031069460448FFF730FA34
:1015B00006B010BD0000014030380240001002406B
:1015C000704770B5044690F838000D4601280DD0DC
:1015D000012684F83860022084F8390042B1042AD8
:1015E00018D0082A2AD00C2A4DD139E0022070BD2B
:1015F000206800F041FB2068816941F008018161A9
:101600002068816921F004018161206881692A696B
:10161000114311E0206800F057FB2068816941F414
:10162000006181612068816921F4806181612068A5
:1016300081692A6941EA0221816124E0206800F081
:101640006FFB2068C16941F00801C1612068C16970
:1016500021F00401C1612068C1692A69114311E0C8
:10166000206800F089FB2068C16941F40061C16114
:101670002068C16921F48061C1612068C1692A695B
:1016800041EA0221C16184F83960002084F8380001
:1016900070BD10B5040003D094F8390010B107E014
:1016A000012010BD002084F83800204600F00CF81E
:1016B000022084F83900211D206800F077FA01200B
:1016C00084F83900002010BD7047704710B50446FB
:1016D0000068012200F0B2FA07492068884203D16D
:1016E000416C41F4004141642068016841F001010E
:1016F0000160002010BD00000000014010B5054948
:1017000000680968884204D100F0B2FB0249012058
:10171000C86010BDB4000020000000207047FEE744
:1017200010B50B4900200B4C4860086102464FF48D
:1017300000412046FFF735FA074950200968486301
:101740002046BDE8104000224FF47041FFF729BA4F
:1017500000000020000C02407800002010B509486D
:10176000FFF7E6F805210748FFF790F810B19FED65
:10177000060B10BD0348FFF72BF8BDE8104080B200
:10178000FEF738BF30000020000000000000F0BF6E
:1017900070B501211948FFF7FFF9020018484FF40E
:1017A000005125D001220546FFF7FBF9154A00201C
:1017B000154C53684FF400414FF47A76012B0FD04B
:1017C0000123536010611A462846FFF7EAF94FF4E7
:1017D000A570216848633046BDE87040FFF706B940
:1017E0005060106100222846FFF7DBF95020F0E737
:1017F000BDE870400022FFF7D4B9000000000240AD
:10180000000C024000000020780000201FB50021DD
:1018100010480091019102910D4A0391C0E9002105
:101820008160016181610C4A0162C0E90A210124E1
:10183000C160C46144610163FEF7CDFF0A20CDE9B8
:1018400000040320029069460248FEF717FF1FBDFF
:1018500000200140300000200100000F2DE9F04180
:1018600086B014216846FEF7EBFC27480024016887
:1018700041F004010160016801F004010591016873
:1018800041F001010160016801F001010591016869
:1018900041F010010160016801F01001059101683B
:1018A00041F0080101600068184F00F00800059041
:1018B000002220213846FFF774F9DFF854804FF4F6
:1018C0007046002231464046FFF76BF94120CDE9D2
:1018D0000004694638460294FFF79AF820200090E9
:1018E0000125CDE90154694638460394FFF790F885
:1018F0000096CDE90154694640460394FFF788F805
:1019000006B0BDE8F081000030380240000002401F
:10191000000C024010B594B000240E940F94109463
:10192000119412941C2168461394FEF789FC1C2123
:1019300007A8FEF785FC1F481D490160A021C0E9EA
:1019400001144FF4FA61C0E903144461FFF78FFCFE
:101950004FF480500E900EA91648FFF7D9FC154899
:10196000FFF797FE129412A912481394FFF757FC41
:101970006020CDE9000402940394049405940022AD
:1019800069460C480694FFF71CFE079408940994D6
:101990004FF400500A94CDE90B4007A905480D9477
:1019A000FFF710FC0348FFF7E1FD14B010BD000085
:1019B000000001407800002010B586B000241148D6
:1019C000009401940294039404944FF08041059490
:1019D00001604FF47A51C0E901144FF44871C0E935
:1019E0000314FFF744FC4FF480500090694605480B
:1019F000FFF78EFC049404A902480594FFF70FFC3E
:101A000006B010BDB40000202DE9F0414FF40046AF
:101A10002DED028BB0EE408AF0EE608A9FED1B0B3D
:101A2000184C7710184D53EC102B51EC180BFEF797
:101A3000A9FC0CD2002231462046FFF7B2F8012261
:101A400039462046FFF7ADF82968502048639FEDDE
:101A5000110B51EC180B53EC102BFEF77BFC0DD245
:101A6000012231462046FFF79CF8002239462046E5
:101A7000FFF797F829684FF4A5704863BDEC028B17
:101A8000BDE8F081000C024078000020F6285C8F51
:101A9000C275014048E17A14AE47E73FFEE7704760
:101AA0000907090E002806DA00F00F0000F1E02017
:101AB00080F8141D704700F1E02080F80014704792
:101AC00070477047FFF778B830B593B0302168465B
:101AD000FEF7B6FB14210CA8FEF7B2FB1948002450
:101AE000016841F080510160006800F08050119061
:101AF0001548016841F4404101600068322100F45A
:101B000040401190012003901020049008200225ED
:101B1000CDE9080100950421CDE90A10CDE906546C
:101B20006846FFF7ABF90F20CDE90C054FF4A05044
:101B3000CDE90E4000210CA81094FFF7D7F813B0A0
:101B400030BD00004038024000700040104801687D
:101B500041F4700101600F48016841F0010101602A
:101B60000C4A00210832116002680B4B1A400260D7
:101B7000031D0A4A1A60026822F4802202600548A6
:101B80000C30016002495806803908607047000037
:101B900088ED00E000380240FFFFF6FE1030002420
:101BA0000148FFF72FBC0000B4000020F0B5026828
:101BB0001B4B1C4C9F031C4D1C4E984207D0B84237
:101BC00005D0A04203D0A84201D0B04204D122F0F7
:101BD000700C4A6842EA0C02984210D0B8420ED00B
:101BE000A0420CD0A8420AD0B04208D0104CA0426B
:101BF00005D0104CA04202D00F4CA04203D122F4D9
:101C00004074CA68224302608A68C2620A688262BB
:101C1000984201D10969016301214161F0BD0000D1
:101C2000000001400004004000080040000C00409B
:101C300000400140004401400048014010B501232C
:101C4000046A8B409C430462036A8A401343036224
:101C500010BD10B5846842EA032224F47F440A438D
:101C60002243826010BD826822F070020A4342F073
:101C7000070181607047000030B5026A22F001025E
:101C80000262026A4368846924F073050C682C437D
:101C900022F002058A682A430A4DA8420BD122F09D
:101CA0000805CA6823F440732A434D6922F00402F0
:101CB0001D438B692B434360846149684163026221
:101CC00030BD00000000014030B5026A22F0100271
:101CD0000262026A436884690D6824F4E64444EAB7
:101CE00005248D6822F0200242EA05120B4DA8421D
:101CF0000ED1CD6822F0800242EA05124D6923F42C
:101D0000406343EA85038D6922F0400243EA85037C
:101D10004360846149688163026230BD0000014014
:101D200030B5026A22F480720262036A4268C469B2
:101D300023F4007324F073050C682C438D6843EA88
:101D400005230C4DA8420ED1CD6823F4006343EA6D
:101D500005234D6922F4405242EA05128D6923F4AD
:101D6000806342EA05124260C4614968C16303624C
:101D700030BD00000000014030B5026A22F48052FC
:101D80000262046A4268C3690D6823F4E64343EAC9
:101D900005238D6824F4005444EA0534064DA84216
:101DA00004D14D6922F4804242EA85124260C36147
:101DB00049680164046230BD0000014010B5036A47
:101DC000046A24F001040462846924F0F00444EA03
:101DD000021423F00A020A438461026210BD10B5A6
:101DE000036A23F0100303628369046A23F47043D7
:101DF00043EA023224F0A00343EA01118261016246
:101E000010BD00002DE9F041164C0025164E20694A
:101E1000DFF85880401C206161684FF400470129B9
:101E200012D000290ED120690A280BDB2561316808
:101E30004FF4A5704863012239464046FEF7B1FED3
:101E400001206060BDE8F0810528FBDB2561316879
:101E500050204863002239464046FEF7A2FE6560E6
:101E6000E1E700000000002078000020000C0240A4
:101E700010B5084C08484FF4805122782AB100224E
:101E8000FEF78FFE0020207010BD0122FEF789FEB4
:101E90000120F8E700000020000C0240FEE702E00D
:101EA00008C8121F08C1002AFAD1704770470020E5
:101EB00001E001C1121F002AFBD17047FEF784FE2A
:101EC000FFF702FEFFF7CAFCFFF776FDFFF79EFC67
:101ED000FFF720FD1148FFF70FFA104800213C38AA
:101EE000FFF7F4FB0E4C0025E560FFF719FC00BF7F
:101EF000FEF79CFBFFF74CFCE0680028F8D0A068D8
:101F0000022807D0FFF72AFC84ED060BFFF77CFDC3
:101F1000E560EDE7FFF776FFFAE70000B400002088
:101F20000000002000000000000000000102030487
:101F300006070809541F00080000002030000000B8
:101F40009E1E0008841F000830000020C00400000E
:101F5000AE1E0008000000000000000002000000AB
:101F60000000000000000000000000000000000071
:101F70000000000001000000100000000000000050
:041F80000024F40045
:040000050800019955
:00000001FF
